{
  "_format": "hh-sol-artifact-1",
  "contractName": "CallTools",
  "sourceName": "contracts/CallTools.sol",
  "abi": [
    {
      "inputs": [
        {
          "internalType": "bytes[]",
          "name": "callTasks",
          "type": "bytes[]"
        },
        {
          "internalType": "uint8[]",
          "name": "returnFlags",
          "type": "uint8[]"
        }
      ],
      "name": "multiCall",
      "outputs": [],
      "stateMutability": "nonpayable",
      "type": "function"
    },
    {
      "inputs": [
        {
          "internalType": "bytes",
          "name": "data",
          "type": "bytes"
        },
        {
          "internalType": "uint256",
          "name": "restLevel",
          "type": "uint256"
        },
        {
          "internalType": "uint256",
          "name": "successBits",
          "type": "uint256"
        }
      ],
      "name": "recursiveCall",
      "outputs": [],
      "stateMutability": "nonpayable",
      "type": "function"
    }
  ],
  "bytecode": "0x608060405234801561001057600080fd5b50610acc806100206000396000f3fe608060405234801561001057600080fd5b50600436106100365760003560e01c80631732ec511461003b5780638d6c4eb014610057575b600080fd5b610055600480360381019061005091906104f7565b610073565b005b610071600480360381019061006c9190610748565b61021c565b005b6000600183106101a8573073ffffffffffffffffffffffffffffffffffffffff16846001856100a291906107ef565b6002856100af9190610852565b6040516024016100c193929190610911565b6040516020818303038152906040527f1732ec51000000000000000000000000000000000000000000000000000000007bffffffffffffffffffffffffffffffffffffffffffffffffffffffff19166020820180517bffffffffffffffffffffffffffffffffffffffffffffffffffffffff838183161783525050505060405161014b919061098b565b6000604051808303816000865af19150503d8060008114610188576040519150601f19603f3d011682016040523d82523d6000602084013e61018d565b606091505b505080915050600060018316036101a357600080fd5b610216565b3073ffffffffffffffffffffffffffffffffffffffff16846040516101cd919061098b565b6000604051808303816000865af19150503d806000811461020a576040519150601f19603f3d011682016040523d82523d6000602084013e61020f565b606091505b5050809150505b50505050565b8051825114610260576040517f08c379a0000000000000000000000000000000000000000000000000000000008152600401610257906109ff565b60405180910390fd5b60005b82518110156103615760003073ffffffffffffffffffffffffffffffffffffffff1684838151811061029857610297610a1f565b5b60200260200101516040516102ad919061098b565b6000604051808303816000865af19150503d80600081146102ea576040519150601f19603f3d011682016040523d82523d6000602084013e6102ef565b606091505b5050905060008360008151811061030957610308610a1f565b5b6020026020010151905060028160ff160361032357600080fd5b8161034c5760038160ff160361033b57505050610363565b60008160ff160361034b57600080fd5b5b5050808061035990610a4e565b915050610263565b505b5050565b6000604051905090565b600080fd5b600080fd5b600080fd5b600080fd5b6000601f19601f8301169050919050565b7f4e487b7100000000000000000000000000000000000000000000000000000000600052604160045260246000fd5b6103ce82610385565b810181811067ffffffffffffffff821117156103ed576103ec610396565b5b80604052505050565b6000610400610367565b905061040c82826103c5565b919050565b600067ffffffffffffffff82111561042c5761042b610396565b5b61043582610385565b9050602081019050919050565b82818337600083830152505050565b600061046461045f84610411565b6103f6565b9050828152602081018484840111156104805761047f610380565b5b61048b848285610442565b509392505050565b600082601f8301126104a8576104a761037b565b5b81356104b8848260208601610451565b91505092915050565b6000819050919050565b6104d4816104c1565b81146104df57600080fd5b50565b6000813590506104f1816104cb565b92915050565b6000806000606084860312156105105761050f610371565b5b600084013567ffffffffffffffff81111561052e5761052d610376565b5b61053a86828701610493565b935050602061054b868287016104e2565b925050604061055c868287016104e2565b9150509250925092565b600067ffffffffffffffff82111561058157610580610396565b5b602082029050602081019050919050565b600080fd5b60006105aa6105a584610566565b6103f6565b905080838252602082019050602084028301858111156105cd576105cc610592565b5b835b8181101561061457803567ffffffffffffffff8111156105f2576105f161037b565b5b8086016105ff8982610493565b855260208501945050506020810190506105cf565b5050509392505050565b600082601f8301126106335761063261037b565b5b8135610643848260208601610597565b91505092915050565b600067ffffffffffffffff82111561066757610666610396565b5b602082029050602081019050919050565b600060ff82169050919050565b61068e81610678565b811461069957600080fd5b50565b6000813590506106ab81610685565b92915050565b60006106c46106bf8461064c565b6103f6565b905080838252602082019050602084028301858111156106e7576106e6610592565b5b835b8181101561071057806106fc888261069c565b8452602084019350506020810190506106e9565b5050509392505050565b600082601f83011261072f5761072e61037b565b5b813561073f8482602086016106b1565b91505092915050565b6000806040838503121561075f5761075e610371565b5b600083013567ffffffffffffffff81111561077d5761077c610376565b5b6107898582860161061e565b925050602083013567ffffffffffffffff8111156107aa576107a9610376565b5b6107b68582860161071a565b9150509250929050565b7f4e487b7100000000000000000000000000000000000000000000000000000000600052601160045260246000fd5b60006107fa826104c1565b9150610805836104c1565b925082820390508181111561081d5761081c6107c0565b5b92915050565b7f4e487b7100000000000000000000000000000000000000000000000000000000600052601260045260246000fd5b600061085d826104c1565b9150610868836104c1565b92508261087857610877610823565b5b828204905092915050565b600081519050919050565b600082825260208201905092915050565b60005b838110156108bd5780820151818401526020810190506108a2565b60008484015250505050565b60006108d482610883565b6108de818561088e565b93506108ee81856020860161089f565b6108f781610385565b840191505092915050565b61090b816104c1565b82525050565b6000606082019050818103600083015261092b81866108c9565b905061093a6020830185610902565b6109476040830184610902565b949350505050565b600081905092915050565b600061096582610883565b61096f818561094f565b935061097f81856020860161089f565b80840191505092915050565b6000610997828461095a565b915081905092915050565b600082825260208201905092915050565b7f496e636f6e73697374656e74206c656e67746800000000000000000000000000600082015250565b60006109e96013836109a2565b91506109f4826109b3565b602082019050919050565b60006020820190508181036000830152610a18816109dc565b9050919050565b7f4e487b7100000000000000000000000000000000000000000000000000000000600052603260045260246000fd5b6000610a59826104c1565b91507fffffffffffffffffffffffffffffffffffffffffffffffffffffffffffffffff8203610a8b57610a8a6107c0565b5b60018201905091905056fea2646970667358221220e031f11406ee5ca554f16790219831b5f54685db0f63bfbeb65b07bd967fc73664736f6c63430008130033",
  "linkReferences": {},
  "deployedLinkReferences": {}
}