{
  "_format": "hh-sol-artifact-1",
  "contractName": "Create2Factory",
  "sourceName": "contracts/Create2Factory.sol",
  "abi": [
    {
      "inputs": [
        {
          "internalType": "uint256",
          "name": "salt",
          "type": "uint256"
        },
        {
          "internalType": "bytes",
          "name": "initializationCode",
          "type": "bytes"
        }
      ],
      "name": "callCreate2",
      "outputs": [
        {
          "internalType": "address",
          "name": "deploymentAddress",
          "type": "address"
        }
      ],
      "stateMutability": "payable",
      "type": "function"
    }
  ],
  "bytecode": "0x608060405234801561001057600080fd5b50610389806100206000396000f3fe60806040526004361061001e5760003560e01c806369b09bc414610023575b600080fd5b61003d600480360381019061003891906101ce565b610053565b60405161004a919061026f565b60405180910390f35b60008083838080601f016020809104026020016040519081016040528093929190818152602001838380828437600081840152601f19601f820116905080830192505050505050509050600034905081602001825187818385f594505050600073ffffffffffffffffffffffffffffffffffffffff168373ffffffffffffffffffffffffffffffffffffffff1603610120576040517f08c379a000000000000000000000000000000000000000000000000000000000815260040161011790610333565b60405180910390fd5b50509392505050565b600080fd5b600080fd5b6000819050919050565b61014681610133565b811461015157600080fd5b50565b6000813590506101638161013d565b92915050565b600080fd5b600080fd5b600080fd5b60008083601f84011261018e5761018d610169565b5b8235905067ffffffffffffffff8111156101ab576101aa61016e565b5b6020830191508360018202830111156101c7576101c6610173565b5b9250929050565b6000806000604084860312156101e7576101e6610129565b5b60006101f586828701610154565b935050602084013567ffffffffffffffff8111156102165761021561012e565b5b61022286828701610178565b92509250509250925092565b600073ffffffffffffffffffffffffffffffffffffffff82169050919050565b60006102598261022e565b9050919050565b6102698161024e565b82525050565b60006020820190506102846000830184610260565b92915050565b600082825260208201905092915050565b7f4661696c656420746f206465706c6f7920636f6e7472616374207573696e672060008201527f70726f76696465642073616c7420616e6420696e697469616c697a6174696f6e60208201527f20636f64652e0000000000000000000000000000000000000000000000000000604082015250565b600061031d60468361028a565b91506103288261029b565b606082019050919050565b6000602082019050818103600083015261034c81610310565b905091905056fea2646970667358221220831007e1e3334165b59d14b8408fe105c1a74164a378fead0aaadb136cbf87f864736f6c63430008130033",
  "linkReferences": {},
  "deployedLinkReferences": {}
}