{
  "_format": "hh-sol-artifact-1",
  "contractName": "StorageExt",
  "sourceName": "contracts/StorageExt.sol",
  "abi": [
    {
      "inputs": [
        {
          "internalType": "uint64",
          "name": "index",
          "type": "uint64"
        }
      ],
      "name": "change",
      "outputs": [],
      "stateMutability": "nonpayable",
      "type": "function"
    },
    {
      "inputs": [
        {
          "internalType": "bytes[]",
          "name": "callTasks",
          "type": "bytes[]"
        },
        {
          "internalType": "uint8[]",
          "name": "returnFlags",
          "type": "uint8[]"
        }
      ],
      "name": "multiCall",
      "outputs": [],
      "stateMutability": "nonpayable",
      "type": "function"
    },
    {
      "inputs": [
        {
          "internalType": "bytes",
          "name": "data",
          "type": "bytes"
        },
        {
          "internalType": "uint256",
          "name": "restLevel",
          "type": "uint256"
        },
        {
          "internalType": "uint256",
          "name": "successBits",
          "type": "uint256"
        }
      ],
      "name": "recursiveCall",
      "outputs": [],
      "stateMutability": "nonpayable",
      "type": "function"
    },
    {
      "inputs": [
        {
          "internalType": "uint64",
          "name": "index",
          "type": "uint64"
        }
      ],
      "name": "reset",
      "outputs": [],
      "stateMutability": "nonpayable",
      "type": "function"
    },
    {
      "inputs": [
        {
          "internalType": "address",
          "name": "addr",
          "type": "address"
        }
      ],
      "name": "resetSponsored",
      "outputs": [],
      "stateMutability": "nonpayable",
      "type": "function"
    },
    {
      "inputs": [
        {
          "internalType": "uint64",
          "name": "index",
          "type": "uint64"
        }
      ],
      "name": "set",
      "outputs": [],
      "stateMutability": "nonpayable",
      "type": "function"
    },
    {
      "inputs": [
        {
          "internalType": "address",
          "name": "addr",
          "type": "address"
        }
      ],
      "name": "setSponsored",
      "outputs": [],
      "stateMutability": "nonpayable",
      "type": "function"
    }
  ],
  "bytecode": "0x608060405234801561001057600080fd5b5061108a806100206000396000f3fe608060405234801561001057600080fd5b506004361061007d5760003560e01c806362ad67e81161005b57806362ad67e8146100d657806370172948146100f25780638d6c4eb01461010e578063e365981c1461012a5761007d565b806307c488ff146100825780631732ec511461009e5780631d8c311f146100ba575b600080fd5b61009c6004803603810190610097919061076d565b610146565b005b6100b860048036038101906100b39190610916565b610187565b005b6100d460048036038101906100cf919061076d565b610330565b005b6100f060048036038101906100eb91906109e3565b61035f565b005b61010c600480360381019061010791906109e3565b61047f565b005b61012860048036038101906101239190610bf2565b61059f565b005b610144600480360381019061013f919061076d565b6106ea565b005b60016000808367ffffffffffffffff1667ffffffffffffffff168152602001908152602001600020600082825461017d9190610c99565b9250508190555050565b6000600183106102bc573073ffffffffffffffffffffffffffffffffffffffff16846001856101b69190610ccd565b6002856101c39190610d30565b6040516024016101d593929190610def565b6040516020818303038152906040527f1732ec51000000000000000000000000000000000000000000000000000000007bffffffffffffffffffffffffffffffffffffffffffffffffffffffff19166020820180517bffffffffffffffffffffffffffffffffffffffffffffffffffffffff838183161783525050505060405161025f9190610e69565b6000604051808303816000865af19150503d806000811461029c576040519150601f19603f3d011682016040523d82523d6000602084013e6102a1565b606091505b505080915050600060018316036102b757600080fd5b61032a565b3073ffffffffffffffffffffffffffffffffffffffff16846040516102e19190610e69565b6000604051808303816000865af19150503d806000811461031e576040519150601f19603f3d011682016040523d82523d6000602084013e610323565b606091505b5050809150505b50505050565b60016000808367ffffffffffffffff1667ffffffffffffffff1681526020019081526020016000208190555050565b6000600167ffffffffffffffff81111561037c5761037b6107b5565b5b6040519080825280602002602001820160405280156103aa5781602001602082028036833780820191505090505b50905081816000815181106103c2576103c1610e80565b5b602002602001019073ffffffffffffffffffffffffffffffffffffffff16908173ffffffffffffffffffffffffffffffffffffffff168152505073088800000000000000000000000000000000000173ffffffffffffffffffffffffffffffffffffffff1663d2932db6826040518263ffffffff1660e01b81526004016104499190610f6d565b600060405180830381600087803b15801561046357600080fd5b505af1158015610477573d6000803e3d6000fd5b505050505050565b6000600167ffffffffffffffff81111561049c5761049b6107b5565b5b6040519080825280602002602001820160405280156104ca5781602001602082028036833780820191505090505b50905081816000815181106104e2576104e1610e80565b5b602002602001019073ffffffffffffffffffffffffffffffffffffffff16908173ffffffffffffffffffffffffffffffffffffffff168152505073088800000000000000000000000000000000000173ffffffffffffffffffffffffffffffffffffffff166310128d3e826040518263ffffffff1660e01b81526004016105699190610f6d565b600060405180830381600087803b15801561058357600080fd5b505af1158015610597573d6000803e3d6000fd5b505050505050565b80518251146105e3576040517f08c379a00000000000000000000000000000000000000000000000000000000081526004016105da90610fec565b60405180910390fd5b60005b82518110156106e45760003073ffffffffffffffffffffffffffffffffffffffff1684838151811061061b5761061a610e80565b5b60200260200101516040516106309190610e69565b6000604051808303816000865af19150503d806000811461066d576040519150601f19603f3d011682016040523d82523d6000602084013e610672565b606091505b5050905060008360008151811061068c5761068b610e80565b5b6020026020010151905060028160ff16036106a657600080fd5b816106cf5760038160ff16036106be575050506106e6565b60008160ff16036106ce57600080fd5b5b505080806106dc9061100c565b9150506105e6565b505b5050565b60008060008367ffffffffffffffff1667ffffffffffffffff1681526020019081526020016000208190555050565b6000604051905090565b600080fd5b600080fd5b600067ffffffffffffffff82169050919050565b61074a8161072d565b811461075557600080fd5b50565b60008135905061076781610741565b92915050565b60006020828403121561078357610782610723565b5b600061079184828501610758565b91505092915050565b600080fd5b600080fd5b6000601f19601f8301169050919050565b7f4e487b7100000000000000000000000000000000000000000000000000000000600052604160045260246000fd5b6107ed826107a4565b810181811067ffffffffffffffff8211171561080c5761080b6107b5565b5b80604052505050565b600061081f610719565b905061082b82826107e4565b919050565b600067ffffffffffffffff82111561084b5761084a6107b5565b5b610854826107a4565b9050602081019050919050565b82818337600083830152505050565b600061088361087e84610830565b610815565b90508281526020810184848401111561089f5761089e61079f565b5b6108aa848285610861565b509392505050565b600082601f8301126108c7576108c661079a565b5b81356108d7848260208601610870565b91505092915050565b6000819050919050565b6108f3816108e0565b81146108fe57600080fd5b50565b600081359050610910816108ea565b92915050565b60008060006060848603121561092f5761092e610723565b5b600084013567ffffffffffffffff81111561094d5761094c610728565b5b610959868287016108b2565b935050602061096a86828701610901565b925050604061097b86828701610901565b9150509250925092565b600073ffffffffffffffffffffffffffffffffffffffff82169050919050565b60006109b082610985565b9050919050565b6109c0816109a5565b81146109cb57600080fd5b50565b6000813590506109dd816109b7565b92915050565b6000602082840312156109f9576109f8610723565b5b6000610a07848285016109ce565b91505092915050565b600067ffffffffffffffff821115610a2b57610a2a6107b5565b5b602082029050602081019050919050565b600080fd5b6000610a54610a4f84610a10565b610815565b90508083825260208201905060208402830185811115610a7757610a76610a3c565b5b835b81811015610abe57803567ffffffffffffffff811115610a9c57610a9b61079a565b5b808601610aa989826108b2565b85526020850194505050602081019050610a79565b5050509392505050565b600082601f830112610add57610adc61079a565b5b8135610aed848260208601610a41565b91505092915050565b600067ffffffffffffffff821115610b1157610b106107b5565b5b602082029050602081019050919050565b600060ff82169050919050565b610b3881610b22565b8114610b4357600080fd5b50565b600081359050610b5581610b2f565b92915050565b6000610b6e610b6984610af6565b610815565b90508083825260208201905060208402830185811115610b9157610b90610a3c565b5b835b81811015610bba5780610ba68882610b46565b845260208401935050602081019050610b93565b5050509392505050565b600082601f830112610bd957610bd861079a565b5b8135610be9848260208601610b5b565b91505092915050565b60008060408385031215610c0957610c08610723565b5b600083013567ffffffffffffffff811115610c2757610c26610728565b5b610c3385828601610ac8565b925050602083013567ffffffffffffffff811115610c5457610c53610728565b5b610c6085828601610bc4565b9150509250929050565b7f4e487b7100000000000000000000000000000000000000000000000000000000600052601160045260246000fd5b6000610ca4826108e0565b9150610caf836108e0565b9250828201905080821115610cc757610cc6610c6a565b5b92915050565b6000610cd8826108e0565b9150610ce3836108e0565b9250828203905081811115610cfb57610cfa610c6a565b5b92915050565b7f4e487b7100000000000000000000000000000000000000000000000000000000600052601260045260246000fd5b6000610d3b826108e0565b9150610d46836108e0565b925082610d5657610d55610d01565b5b828204905092915050565b600081519050919050565b600082825260208201905092915050565b60005b83811015610d9b578082015181840152602081019050610d80565b60008484015250505050565b6000610db282610d61565b610dbc8185610d6c565b9350610dcc818560208601610d7d565b610dd5816107a4565b840191505092915050565b610de9816108e0565b82525050565b60006060820190508181036000830152610e098186610da7565b9050610e186020830185610de0565b610e256040830184610de0565b949350505050565b600081905092915050565b6000610e4382610d61565b610e4d8185610e2d565b9350610e5d818560208601610d7d565b80840191505092915050565b6000610e758284610e38565b915081905092915050565b7f4e487b7100000000000000000000000000000000000000000000000000000000600052603260045260246000fd5b600081519050919050565b600082825260208201905092915050565b6000819050602082019050919050565b610ee4816109a5565b82525050565b6000610ef68383610edb565b60208301905092915050565b6000602082019050919050565b6000610f1a82610eaf565b610f248185610eba565b9350610f2f83610ecb565b8060005b83811015610f60578151610f478882610eea565b9750610f5283610f02565b925050600181019050610f33565b5085935050505092915050565b60006020820190508181036000830152610f878184610f0f565b905092915050565b600082825260208201905092915050565b7f496e636f6e73697374656e74206c656e67746800000000000000000000000000600082015250565b6000610fd6601383610f8f565b9150610fe182610fa0565b602082019050919050565b6000602082019050818103600083015261100581610fc9565b9050919050565b6000611017826108e0565b91507fffffffffffffffffffffffffffffffffffffffffffffffffffffffffffffffff820361104957611048610c6a565b5b60018201905091905056fea264697066735822122026f522c60611595add0560ef253bd8b2189d37a59fefaf589067194dd9eab28964736f6c63430008130033",
  "linkReferences": {},
  "deployedLinkReferences": {}
}