{
  "_format": "hh-sol-artifact-1",
  "contractName": "Storage",
  "sourceName": "contracts/Storage.sol",
  "abi": [
    {
      "inputs": [],
      "stateMutability": "nonpayable",
      "type": "constructor"
    },
    {
      "inputs": [
        {
          "internalType": "uint64",
          "name": "index",
          "type": "uint64"
        }
      ],
      "name": "change",
      "outputs": [],
      "stateMutability": "nonpayable",
      "type": "function"
    },
    {
      "inputs": [
        {
          "internalType": "uint64",
          "name": "index",
          "type": "uint64"
        }
      ],
      "name": "reset",
      "outputs": [],
      "stateMutability": "nonpayable",
      "type": "function"
    },
    {
      "inputs": [
        {
          "internalType": "uint64",
          "name": "index",
          "type": "uint64"
        }
      ],
      "name": "set",
      "outputs": [],
      "stateMutability": "nonpayable",
      "type": "function"
    }
  ],
  "bytecode": "0x608060405234801561001057600080fd5b5061024e806100206000396000f3fe608060405234801561001057600080fd5b50600436106100415760003560e01c806307c488ff146100465780631d8c311f14610062578063e365981c1461007e575b600080fd5b610060600480360381019061005b919061017e565b61009a565b005b61007c6004803603810190610077919061017e565b6100db565b005b6100986004803603810190610093919061017e565b61010a565b005b60016000808367ffffffffffffffff1667ffffffffffffffff16815260200190815260200160002060008282546100d191906101e4565b9250508190555050565b60016000808367ffffffffffffffff1667ffffffffffffffff1681526020019081526020016000208190555050565b60008060008367ffffffffffffffff1667ffffffffffffffff1681526020019081526020016000208190555050565b600080fd5b600067ffffffffffffffff82169050919050565b61015b8161013e565b811461016657600080fd5b50565b60008135905061017881610152565b92915050565b60006020828403121561019457610193610139565b5b60006101a284828501610169565b91505092915050565b6000819050919050565b7f4e487b7100000000000000000000000000000000000000000000000000000000600052601160045260246000fd5b60006101ef826101ab565b91506101fa836101ab565b9250828201905080821115610212576102116101b5565b5b9291505056fea264697066735822122014aa7ca880a0541ccabe0ebd26a560e81ad3ed5cb6e92dfd028465abb6d75f9c64736f6c63430008130033",
  "linkReferences": {},
  "deployedLinkReferences": {}
}