{
  "_format": "hh-sol-artifact-1",
  "contractName": "Staking",
  "sourceName": "contracts/InternalContracts/Staking.sol",
  "abi": [
    {
      "inputs": [
        {
          "internalType": "uint256",
          "name": "amount",
          "type": "uint256"
        }
      ],
      "name": "deposit",
      "outputs": [],
      "stateMutability": "nonpayable",
      "type": "function"
    },
    {
      "inputs": [
        {
          "internalType": "address",
          "name": "user",
          "type": "address"
        },
        {
          "internalType": "uint256",
          "name": "blockNumber",
          "type": "uint256"
        }
      ],
      "name": "getLockedStakingBalance",
      "outputs": [
        {
          "internalType": "uint256",
          "name": "",
          "type": "uint256"
        }
      ],
      "stateMutability": "view",
      "type": "function"
    },
    {
      "inputs": [
        {
          "internalType": "address",
          "name": "user",
          "type": "address"
        }
      ],
      "name": "getStakingBalance",
      "outputs": [
        {
          "internalType": "uint256",
          "name": "",
          "type": "uint256"
        }
      ],
      "stateMutability": "view",
      "type": "function"
    },
    {
      "inputs": [
        {
          "internalType": "address",
          "name": "user",
          "type": "address"
        },
        {
          "internalType": "uint256",
          "name": "blockNumber",
          "type": "uint256"
        }
      ],
      "name": "getVotePower",
      "outputs": [
        {
          "internalType": "uint256",
          "name": "",
          "type": "uint256"
        }
      ],
      "stateMutability": "view",
      "type": "function"
    },
    {
      "inputs": [
        {
          "internalType": "uint256",
          "name": "amount",
          "type": "uint256"
        },
        {
          "internalType": "uint256",
          "name": "unlockBlockNumber",
          "type": "uint256"
        }
      ],
      "name": "voteLock",
      "outputs": [],
      "stateMutability": "nonpayable",
      "type": "function"
    },
    {
      "inputs": [
        {
          "internalType": "uint256",
          "name": "amount",
          "type": "uint256"
        }
      ],
      "name": "withdraw",
      "outputs": [],
      "stateMutability": "nonpayable",
      "type": "function"
    }
  ],
  "bytecode": "0x608060405234801561001057600080fd5b5061033f806100206000396000f3fe608060405234801561001057600080fd5b50600436106100625760003560e01c80632e1a7d4d1461006757806344a51d6d14610083578063b04ef9c21461009f578063b3657ee7146100cf578063b6b55f25146100ff578063c90abac81461011b575b600080fd5b610081600480360381019061007c91906101a7565b61014b565b005b61009d600480360381019061009891906101d4565b61014e565b005b6100b960048036038101906100b49190610272565b610152565b6040516100c691906102ae565b60405180910390f35b6100e960048036038101906100e491906102c9565b610159565b6040516100f691906102ae565b60405180910390f35b610119600480360381019061011491906101a7565b610161565b005b610135600480360381019061013091906102c9565b610164565b60405161014291906102ae565b60405180910390f35b50565b5050565b6000919050565b600092915050565b50565b600092915050565b600080fd5b6000819050919050565b61018481610171565b811461018f57600080fd5b50565b6000813590506101a18161017b565b92915050565b6000602082840312156101bd576101bc61016c565b5b60006101cb84828501610192565b91505092915050565b600080604083850312156101eb576101ea61016c565b5b60006101f985828601610192565b925050602061020a85828601610192565b9150509250929050565b600073ffffffffffffffffffffffffffffffffffffffff82169050919050565b600061023f82610214565b9050919050565b61024f81610234565b811461025a57600080fd5b50565b60008135905061026c81610246565b92915050565b6000602082840312156102885761028761016c565b5b60006102968482850161025d565b91505092915050565b6102a881610171565b82525050565b60006020820190506102c3600083018461029f565b92915050565b600080604083850312156102e0576102df61016c565b5b60006102ee8582860161025d565b92505060206102ff85828601610192565b915050925092905056fea264697066735822122069995dda5a26c64f27ab524e5ec55829436c974fdd5f3d770fbe9f57978c4ca764736f6c63430008130033",
  "linkReferences": {},
  "deployedLinkReferences": {}
}