{
  "_format": "hh-sol-artifact-1",
  "contractName": "AdminTestContract",
  "sourceName": "contracts/AdminTestContract.sol",
  "abi": [
    {
      "inputs": [],
      "stateMutability": "nonpayable",
      "type": "constructor"
    },
    {
      "inputs": [],
      "name": "EVIL_ADDR",
      "outputs": [
        {
          "internalType": "address",
          "name": "",
          "type": "address"
        }
      ],
      "stateMutability": "view",
      "type": "function"
    },
    {
      "inputs": [],
      "name": "clearAdmin",
      "outputs": [],
      "stateMutability": "nonpayable",
      "type": "function"
    },
    {
      "inputs": [
        {
          "internalType": "bytes",
          "name": "code",
          "type": "bytes"
        }
      ],
      "name": "deployAndHijackAdmin",
      "outputs": [
        {
          "internalType": "address",
          "name": "",
          "type": "address"
        }
      ],
      "stateMutability": "payable",
      "type": "function"
    },
    {
      "inputs": [],
      "name": "hijackAdmin",
      "outputs": [],
      "stateMutability": "payable",
      "type": "function"
    }
  ],
  "bytecode": "0x60806040523480156200001157600080fd5b50620000226200050460201b60201c565b73100000000000000000000000000000000000000073ffffffffffffffffffffffffffffffffffffffff1673088800000000000000000000000000000000000073ffffffffffffffffffffffffffffffffffffffff166364efb22b306040518263ffffffff1660e01b81526004016200009c9190620005e4565b602060405180830381865afa158015620000ba573d6000803e3d6000fd5b505050506040513d601f19601f82011682018060405250810190620000e0919062000637565b73ffffffffffffffffffffffffffffffffffffffff160362000139576040517f08c379a00000000000000000000000000000000000000000000000000000000081526004016200013090620006ca565b60405180910390fd5b60003073ffffffffffffffffffffffffffffffffffffffff166040516024016040516020818303038152906040527f8b0b3140000000000000000000000000000000000000000000000000000000007bffffffffffffffffffffffffffffffffffffffffffffffffffffffff19166020820180517bffffffffffffffffffffffffffffffffffffffffffffffffffffffff8381831617835250505050604051620001e4919062000765565b6000604051808303816000865af19150503d806000811462000223576040519150601f19603f3d011682016040523d82523d6000602084013e62000228565b606091505b50509050806200026f576040517f08c379a00000000000000000000000000000000000000000000000000000000081526004016200026690620007ce565b60405180910390fd5b600073ffffffffffffffffffffffffffffffffffffffff1673088800000000000000000000000000000000000073ffffffffffffffffffffffffffffffffffffffff166364efb22b306040518263ffffffff1660e01b8152600401620002d69190620005e4565b602060405180830381865afa158015620002f4573d6000803e3d6000fd5b505050506040513d601f19601f820116820180604052508101906200031a919062000637565b73ffffffffffffffffffffffffffffffffffffffff160362000373576040517f08c379a00000000000000000000000000000000000000000000000000000000081526004016200036a9062000840565b60405180910390fd5b73088800000000000000000000000000000000000073ffffffffffffffffffffffffffffffffffffffff1663c55b6bb73060006040518363ffffffff1660e01b8152600401620003c592919062000862565b600060405180830381600087803b158015620003e057600080fd5b505af1158015620003f5573d6000803e3d6000fd5b50505050600073ffffffffffffffffffffffffffffffffffffffff1673088800000000000000000000000000000000000073ffffffffffffffffffffffffffffffffffffffff166364efb22b306040518263ffffffff1660e01b8152600401620004609190620005e4565b602060405180830381865afa1580156200047e573d6000803e3d6000fd5b505050506040513d601f19601f82011682018060405250810190620004a4919062000637565b73ffffffffffffffffffffffffffffffffffffffff1614620004fd576040517f08c379a0000000000000000000000000000000000000000000000000000000008152600401620004f490620008df565b60405180910390fd5b5062000901565b73088800000000000000000000000000000000000073ffffffffffffffffffffffffffffffffffffffff1663c55b6bb7337310000000000000000000000000000000000000006040518363ffffffff1660e01b81526004016200056992919062000862565b600060405180830381600087803b1580156200058457600080fd5b505af115801562000599573d6000803e3d6000fd5b50505050565b600073ffffffffffffffffffffffffffffffffffffffff82169050919050565b6000620005cc826200059f565b9050919050565b620005de81620005bf565b82525050565b6000602082019050620005fb6000830184620005d3565b92915050565b600080fd5b6200061181620005bf565b81146200061d57600080fd5b50565b600081519050620006318162000606565b92915050565b60006020828403121562000650576200064f62000601565b5b6000620006608482850162000620565b91505092915050565b600082825260208201905092915050565b7f726571756972652061646d696e20213d206576696c0000000000000000000000600082015250565b6000620006b260158362000669565b9150620006bf826200067a565b602082019050919050565b60006020820190508181036000830152620006e581620006a3565b9050919050565b600081519050919050565b600081905092915050565b60005b838110156200072257808201518184015260208101905062000705565b60008484015250505050565b60006200073b82620006ec565b620007478185620006f7565b93506200075981856020860162000702565b80840191505092915050565b60006200077382846200072e565b915081905092915050565b7f73657441646d696e206e65766572207265766572740000000000000000000000600082015250565b6000620007b660158362000669565b9150620007c3826200077e565b602082019050919050565b60006020820190508181036000830152620007e981620007a7565b9050919050565b7f726571756972652061646d696e20213d206e756c6c0000000000000000000000600082015250565b60006200082860158362000669565b91506200083582620007f0565b602082019050919050565b600060208201905081810360008301526200085b8162000819565b9050919050565b6000604082019050620008796000830185620005d3565b620008886020830184620005d3565b9392505050565b7f726571756972652061646d696e203d3d206e756c6c0000000000000000000000600082015250565b6000620008c760158362000669565b9150620008d4826200088f565b602082019050919050565b60006020820190508181036000830152620008fa81620008b8565b9050919050565b61065380620009116000396000f3fe60806040526004361061003f5760003560e01c80638b0b3140146100445780638ef99ff51461005b578063b61b2fe91461008b578063ce0a10db14610095575b600080fd5b34801561005057600080fd5b506100596100c0565b005b610075600480360381019061007091906104d2565b610144565b604051610082919061055c565b60405180910390f35b6100936102c9565b005b3480156100a157600080fd5b506100aa610360565b6040516100b7919061055c565b60405180910390f35b73088800000000000000000000000000000000000073ffffffffffffffffffffffffffffffffffffffff1663c55b6bb73060006040518363ffffffff1660e01b8152600401610110929190610577565b600060405180830381600087803b15801561012a57600080fd5b505af115801561013e573d6000803e3d6000fd5b50505050565b600080600060019050600034905084516020860182f09250823b61016757600091505b816101a7576040517f08c379a000000000000000000000000000000000000000000000000000000000815260040161019e906105fd565b60405180910390fd5b73088800000000000000000000000000000000000073ffffffffffffffffffffffffffffffffffffffff1663c55b6bb7847310000000000000000000000000000000000000006040518363ffffffff1660e01b815260040161020a929190610577565b600060405180830381600087803b15801561022457600080fd5b505af1158015610238573d6000803e3d6000fd5b5050505073088800000000000000000000000000000000000073ffffffffffffffffffffffffffffffffffffffff1663c55b6bb78460006040518363ffffffff1660e01b815260040161028c929190610577565b600060405180830381600087803b1580156102a657600080fd5b505af11580156102ba573d6000803e3d6000fd5b50505050829350505050919050565b73088800000000000000000000000000000000000073ffffffffffffffffffffffffffffffffffffffff1663c55b6bb7337310000000000000000000000000000000000000006040518363ffffffff1660e01b815260040161032c929190610577565b600060405180830381600087803b15801561034657600080fd5b505af115801561035a573d6000803e3d6000fd5b50505050565b73100000000000000000000000000000000000000081565b6000604051905090565b600080fd5b600080fd5b600080fd5b600080fd5b6000601f19601f8301169050919050565b7f4e487b7100000000000000000000000000000000000000000000000000000000600052604160045260246000fd5b6103df82610396565b810181811067ffffffffffffffff821117156103fe576103fd6103a7565b5b80604052505050565b6000610411610378565b905061041d82826103d6565b919050565b600067ffffffffffffffff82111561043d5761043c6103a7565b5b61044682610396565b9050602081019050919050565b82818337600083830152505050565b600061047561047084610422565b610407565b90508281526020810184848401111561049157610490610391565b5b61049c848285610453565b509392505050565b600082601f8301126104b9576104b861038c565b5b81356104c9848260208601610462565b91505092915050565b6000602082840312156104e8576104e7610382565b5b600082013567ffffffffffffffff81111561050657610505610387565b5b610512848285016104a4565b91505092915050565b600073ffffffffffffffffffffffffffffffffffffffff82169050919050565b60006105468261051b565b9050919050565b6105568161053b565b82525050565b6000602082019050610571600083018461054d565b92915050565b600060408201905061058c600083018561054d565b610599602083018461054d565b9392505050565b600082825260208201905092915050565b7f637265617465206661696c656400000000000000000000000000000000000000600082015250565b60006105e7600d836105a0565b91506105f2826105b1565b602082019050919050565b60006020820190508181036000830152610616816105da565b905091905056fea2646970667358221220d3fa209390d536efe99f08034287c5687066851a65ed448f2d9fb8918a56d14d64736f6c63430008130033",
  "linkReferences": {},
  "deployedLinkReferences": {}
}